{
  "contractName": "LavaToken",
  "abi": [
    {
      "constant": true,
      "inputs": [],
      "name": "name",
      "outputs": [
        {
          "name": "",
          "type": "string"
        }
      ],
      "payable": false,
      "stateMutability": "view",
      "type": "function"
    },
    {
      "constant": true,
      "inputs": [
        {
          "name": "",
          "type": "address"
        }
      ],
      "name": "balances",
      "outputs": [
        {
          "name": "",
          "type": "uint256"
        }
      ],
      "payable": false,
      "stateMutability": "view",
      "type": "function"
    },
    {
      "constant": true,
      "inputs": [],
      "name": "masterToken",
      "outputs": [
        {
          "name": "",
          "type": "address"
        }
      ],
      "payable": false,
      "stateMutability": "view",
      "type": "function"
    },
    {
      "constant": true,
      "inputs": [],
      "name": "decimals",
      "outputs": [
        {
          "name": "",
          "type": "uint8"
        }
      ],
      "payable": false,
      "stateMutability": "view",
      "type": "function"
    },
    {
      "constant": true,
      "inputs": [
        {
          "name": "",
          "type": "bytes32"
        }
      ],
      "name": "burnedSignatures",
      "outputs": [
        {
          "name": "",
          "type": "uint256"
        }
      ],
      "payable": false,
      "stateMutability": "view",
      "type": "function"
    },
    {
      "constant": true,
      "inputs": [],
      "name": "symbol",
      "outputs": [
        {
          "name": "",
          "type": "string"
        }
      ],
      "payable": false,
      "stateMutability": "view",
      "type": "function"
    },
    {
      "constant": true,
      "inputs": [
        {
          "name": "",
          "type": "address"
        },
        {
          "name": "",
          "type": "address"
        }
      ],
      "name": "allowance",
      "outputs": [
        {
          "name": "",
          "type": "uint256"
        }
      ],
      "payable": false,
      "stateMutability": "view",
      "type": "function"
    },
    {
      "inputs": [],
      "payable": false,
      "stateMutability": "nonpayable",
      "type": "constructor"
    },
    {
      "payable": true,
      "stateMutability": "payable",
      "type": "fallback"
    },
    {
      "anonymous": false,
      "inputs": [
        {
          "indexed": true,
          "name": "src",
          "type": "address"
        },
        {
          "indexed": true,
          "name": "ext",
          "type": "address"
        },
        {
          "indexed": false,
          "name": "amt",
          "type": "uint256"
        }
      ],
      "name": "Approval",
      "type": "event"
    },
    {
      "anonymous": false,
      "inputs": [
        {
          "indexed": true,
          "name": "src",
          "type": "address"
        },
        {
          "indexed": true,
          "name": "dst",
          "type": "address"
        },
        {
          "indexed": false,
          "name": "amt",
          "type": "uint256"
        }
      ],
      "name": "Transfer",
      "type": "event"
    },
    {
      "anonymous": false,
      "inputs": [
        {
          "indexed": true,
          "name": "dst",
          "type": "address"
        },
        {
          "indexed": false,
          "name": "amt",
          "type": "uint256"
        }
      ],
      "name": "Deposit",
      "type": "event"
    },
    {
      "anonymous": false,
      "inputs": [
        {
          "indexed": true,
          "name": "src",
          "type": "address"
        },
        {
          "indexed": false,
          "name": "amt",
          "type": "uint256"
        }
      ],
      "name": "Withdrawal",
      "type": "event"
    },
    {
      "constant": true,
      "inputs": [],
      "name": "getLavaDomainTypehash",
      "outputs": [
        {
          "name": "",
          "type": "bytes32"
        }
      ],
      "payable": false,
      "stateMutability": "pure",
      "type": "function"
    },
    {
      "constant": true,
      "inputs": [
        {
          "name": "contractName",
          "type": "string"
        },
        {
          "name": "version",
          "type": "string"
        },
        {
          "name": "chainId",
          "type": "uint256"
        },
        {
          "name": "verifyingContract",
          "type": "address"
        }
      ],
      "name": "getEIP712DomainHash",
      "outputs": [
        {
          "name": "",
          "type": "bytes32"
        }
      ],
      "payable": false,
      "stateMutability": "pure",
      "type": "function"
    },
    {
      "constant": true,
      "inputs": [],
      "name": "getLavaPacketTypehash",
      "outputs": [
        {
          "name": "",
          "type": "bytes32"
        }
      ],
      "payable": false,
      "stateMutability": "pure",
      "type": "function"
    },
    {
      "constant": true,
      "inputs": [
        {
          "name": "methodName",
          "type": "string"
        },
        {
          "name": "relayAuthority",
          "type": "address"
        },
        {
          "name": "from",
          "type": "address"
        },
        {
          "name": "to",
          "type": "address"
        },
        {
          "name": "wallet",
          "type": "address"
        },
        {
          "name": "tokens",
          "type": "uint256"
        },
        {
          "name": "relayerRewardTokens",
          "type": "uint256"
        },
        {
          "name": "expires",
          "type": "uint256"
        },
        {
          "name": "nonce",
          "type": "uint256"
        }
      ],
      "name": "getLavaPacketHash",
      "outputs": [
        {
          "name": "",
          "type": "bytes32"
        }
      ],
      "payable": false,
      "stateMutability": "pure",
      "type": "function"
    },
    {
      "constant": false,
      "inputs": [
        {
          "name": "from",
          "type": "address"
        },
        {
          "name": "amount",
          "type": "uint256"
        }
      ],
      "name": "mutateTokens",
      "outputs": [
        {
          "name": "",
          "type": "bool"
        }
      ],
      "payable": false,
      "stateMutability": "nonpayable",
      "type": "function"
    },
    {
      "constant": false,
      "inputs": [
        {
          "name": "amount",
          "type": "uint256"
        }
      ],
      "name": "unmutateTokens",
      "outputs": [
        {
          "name": "",
          "type": "bool"
        }
      ],
      "payable": false,
      "stateMutability": "nonpayable",
      "type": "function"
    },
    {
      "constant": true,
      "inputs": [],
      "name": "totalSupply",
      "outputs": [
        {
          "name": "",
          "type": "uint256"
        }
      ],
      "payable": false,
      "stateMutability": "view",
      "type": "function"
    },
    {
      "constant": true,
      "inputs": [
        {
          "name": "tokenOwner",
          "type": "address"
        }
      ],
      "name": "balanceOf",
      "outputs": [
        {
          "name": "balance",
          "type": "uint256"
        }
      ],
      "payable": false,
      "stateMutability": "view",
      "type": "function"
    },
    {
      "constant": true,
      "inputs": [
        {
          "name": "owner",
          "type": "address"
        },
        {
          "name": "spender",
          "type": "address"
        }
      ],
      "name": "getAllowance",
      "outputs": [
        {
          "name": "",
          "type": "uint256"
        }
      ],
      "payable": false,
      "stateMutability": "view",
      "type": "function"
    },
    {
      "constant": false,
      "inputs": [
        {
          "name": "spender",
          "type": "address"
        },
        {
          "name": "tokens",
          "type": "uint256"
        }
      ],
      "name": "approve",
      "outputs": [
        {
          "name": "success",
          "type": "bool"
        }
      ],
      "payable": false,
      "stateMutability": "nonpayable",
      "type": "function"
    },
    {
      "constant": false,
      "inputs": [
        {
          "name": "to",
          "type": "address"
        },
        {
          "name": "tokens",
          "type": "uint256"
        }
      ],
      "name": "transfer",
      "outputs": [
        {
          "name": "success",
          "type": "bool"
        }
      ],
      "payable": false,
      "stateMutability": "nonpayable",
      "type": "function"
    },
    {
      "constant": false,
      "inputs": [
        {
          "name": "from",
          "type": "address"
        },
        {
          "name": "to",
          "type": "address"
        },
        {
          "name": "tokens",
          "type": "uint256"
        }
      ],
      "name": "transferFrom",
      "outputs": [
        {
          "name": "success",
          "type": "bool"
        }
      ],
      "payable": false,
      "stateMutability": "nonpayable",
      "type": "function"
    },
    {
      "constant": true,
      "inputs": [
        {
          "name": "methodName",
          "type": "string"
        },
        {
          "name": "relayAuthority",
          "type": "address"
        },
        {
          "name": "from",
          "type": "address"
        },
        {
          "name": "to",
          "type": "address"
        },
        {
          "name": "wallet",
          "type": "address"
        },
        {
          "name": "tokens",
          "type": "uint256"
        },
        {
          "name": "relayerRewardTokens",
          "type": "uint256"
        },
        {
          "name": "expires",
          "type": "uint256"
        },
        {
          "name": "nonce",
          "type": "uint256"
        }
      ],
      "name": "getLavaTypedDataHash",
      "outputs": [
        {
          "name": "",
          "type": "bytes32"
        }
      ],
      "payable": false,
      "stateMutability": "view",
      "type": "function"
    },
    {
      "constant": false,
      "inputs": [
        {
          "name": "methodName",
          "type": "string"
        },
        {
          "name": "relayAuthority",
          "type": "address"
        },
        {
          "name": "from",
          "type": "address"
        },
        {
          "name": "to",
          "type": "address"
        },
        {
          "name": "wallet",
          "type": "address"
        },
        {
          "name": "tokens",
          "type": "uint256"
        },
        {
          "name": "relayerRewardTokens",
          "type": "uint256"
        },
        {
          "name": "expires",
          "type": "uint256"
        },
        {
          "name": "nonce",
          "type": "uint256"
        },
        {
          "name": "signature",
          "type": "bytes"
        }
      ],
      "name": "approveTokensWithSignature",
      "outputs": [
        {
          "name": "success",
          "type": "bool"
        }
      ],
      "payable": false,
      "stateMutability": "nonpayable",
      "type": "function"
    },
    {
      "constant": false,
      "inputs": [
        {
          "name": "methodName",
          "type": "string"
        },
        {
          "name": "relayAuthority",
          "type": "address"
        },
        {
          "name": "from",
          "type": "address"
        },
        {
          "name": "to",
          "type": "address"
        },
        {
          "name": "wallet",
          "type": "address"
        },
        {
          "name": "tokens",
          "type": "uint256"
        },
        {
          "name": "relayerRewardTokens",
          "type": "uint256"
        },
        {
          "name": "expires",
          "type": "uint256"
        },
        {
          "name": "nonce",
          "type": "uint256"
        },
        {
          "name": "signature",
          "type": "bytes"
        }
      ],
      "name": "transferTokensWithSignature",
      "outputs": [
        {
          "name": "success",
          "type": "bool"
        }
      ],
      "payable": false,
      "stateMutability": "nonpayable",
      "type": "function"
    },
    {
      "constant": false,
      "inputs": [
        {
          "name": "methodName",
          "type": "string"
        },
        {
          "name": "relayAuthority",
          "type": "address"
        },
        {
          "name": "from",
          "type": "address"
        },
        {
          "name": "to",
          "type": "address"
        },
        {
          "name": "wallet",
          "type": "address"
        },
        {
          "name": "tokens",
          "type": "uint256"
        },
        {
          "name": "relayerRewardTokens",
          "type": "uint256"
        },
        {
          "name": "expires",
          "type": "uint256"
        },
        {
          "name": "nonce",
          "type": "uint256"
        },
        {
          "name": "signature",
          "type": "bytes"
        }
      ],
      "name": "approveAndCallWithSignature",
      "outputs": [
        {
          "name": "success",
          "type": "bool"
        }
      ],
      "payable": false,
      "stateMutability": "nonpayable",
      "type": "function"
    },
    {
      "constant": false,
      "inputs": [
        {
          "name": "methodName",
          "type": "string"
        },
        {
          "name": "relayAuthority",
          "type": "address"
        },
        {
          "name": "from",
          "type": "address"
        },
        {
          "name": "to",
          "type": "address"
        },
        {
          "name": "wallet",
          "type": "address"
        },
        {
          "name": "tokens",
          "type": "uint256"
        },
        {
          "name": "relayerRewardTokens",
          "type": "uint256"
        },
        {
          "name": "expires",
          "type": "uint256"
        },
        {
          "name": "nonce",
          "type": "uint256"
        },
        {
          "name": "signature",
          "type": "bytes"
        }
      ],
      "name": "burnSignature",
      "outputs": [
        {
          "name": "success",
          "type": "bool"
        }
      ],
      "payable": false,
      "stateMutability": "nonpayable",
      "type": "function"
    },
    {
      "constant": true,
      "inputs": [
        {
          "name": "digest",
          "type": "bytes32"
        }
      ],
      "name": "signatureHashBurnStatus",
      "outputs": [
        {
          "name": "",
          "type": "uint256"
        }
      ],
      "payable": false,
      "stateMutability": "view",
      "type": "function"
    },
    {
      "constant": false,
      "inputs": [
        {
          "name": "from",
          "type": "address"
        },
        {
          "name": "tokens",
          "type": "uint256"
        },
        {
          "name": "token",
          "type": "address"
        },
        {
          "name": "data",
          "type": "bytes"
        }
      ],
      "name": "receiveApproval",
      "outputs": [
        {
          "name": "success",
          "type": "bool"
        }
      ],
      "payable": false,
      "stateMutability": "nonpayable",
      "type": "function"
    }
  ],
  "bytecode": "0x60806040526040805190810160405280600481526020017f4c617661000000000000000000000000000000000000000000000000000000008152506000908051906020019062000051929190620000d0565b506040805190810160405280600481526020017f4c41564100000000000000000000000000000000000000000000000000000000815250600190805190602001906200009f929190620000d0565b506008600260006101000a81548160ff021916908360ff160217905550348015620000c957600080fd5b506200017f565b828054600181600116156101000203166002900490600052602060002090601f016020900481019282601f106200011357805160ff191683800117855562000144565b8280016001018555821562000144579182015b828111156200014357825182559160200191906001019062000126565b5b50905062000153919062000157565b5090565b6200017c91905b80821115620001785760008160009055506001016200015e565b5090565b90565b613405806200018f6000396000f3fe608060405260043610610154576000357c0100000000000000000000000000000000000000000000000000000000900463ffffffff16806306fdde0314610159578063095ea7b3146101e95780630af4187d1461025c57806318160ddd146102e15780631d48bfe31461030c57806323b872dd1461035b57806327e235e3146103ee5780632bb5e31e14610453578063313ce567146104aa578063489432fd146104db578063636f6e08146106fb5780636bd4e04a1461074a57806370a08231146107bd57806376af0d0e146108225780637b16bde314610a425780638d11fa5414610c625780638f4ffcb114610c8d578063927ced0214610db757806395d89b4114610f3c578063a9059cbb14610fcc578063ad0bfac11461103f578063c375ba8a146111c4578063c5e6d8e0146111ef578063d327c1eb14611242578063dd62ed3e146113df578063dd975f9614611464575b600080fd5b34801561016557600080fd5b5061016e611684565b6040518080602001828103825283818151815260200191508051906020019080838360005b838110156101ae578082015181840152602081019050610193565b50505050905090810190601f1680156101db5780820380516001836020036101000a031916815260200191505b509250505060405180910390f35b3480156101f557600080fd5b506102426004803603604081101561020c57600080fd5b81019080803573ffffffffffffffffffffffffffffffffffffffff16906020019092919080359060200190929190505050611722565b604051808215151515815260200191505060405180910390f35b34801561026857600080fd5b506102cb6004803603604081101561027f57600080fd5b81019080803573ffffffffffffffffffffffffffffffffffffffff169060200190929190803573ffffffffffffffffffffffffffffffffffffffff169060200190929190505050611814565b6040518082815260200191505060405180910390f35b3480156102ed57600080fd5b506102f661189b565b6040518082815260200191505060405180910390f35b34801561031857600080fd5b506103456004803603602081101561032f57600080fd5b81019080803590602001909291905050506118a5565b6040518082815260200191505060405180910390f35b34801561036757600080fd5b506103d46004803603606081101561037e57600080fd5b81019080803573ffffffffffffffffffffffffffffffffffffffff169060200190929190803573ffffffffffffffffffffffffffffffffffffffff169060200190929190803590602001909291905050506118c2565b604051808215151515815260200191505060405180910390f35b3480156103fa57600080fd5b5061043d6004803603602081101561041157600080fd5b81019080803573ffffffffffffffffffffffffffffffffffffffff169060200190929190505050611b6d565b6040518082815260200191505060405180910390f35b34801561045f57600080fd5b50610468611b85565b604051808273ffffffffffffffffffffffffffffffffffffffff1673ffffffffffffffffffffffffffffffffffffffff16815260200191505060405180910390f35b3480156104b657600080fd5b506104bf611b9d565b604051808260ff1660ff16815260200191505060405180910390f35b3480156104e757600080fd5b506106e160048036036101408110156104ff57600080fd5b810190808035906020019064010000000081111561051c57600080fd5b82018360208201111561052e57600080fd5b8035906020019184600183028401116401000000008311171561055057600080fd5b91908080601f016020809104026020016040519081016040528093929190818152602001838380828437600081840152601f19601f820116905080830192505050505050509192919290803573ffffffffffffffffffffffffffffffffffffffff169060200190929190803573ffffffffffffffffffffffffffffffffffffffff169060200190929190803573ffffffffffffffffffffffffffffffffffffffff169060200190929190803573ffffffffffffffffffffffffffffffffffffffff169060200190929190803590602001909291908035906020019092919080359060200190929190803590602001909291908035906020019064010000000081111561065b57600080fd5b82018360208201111561066d57600080fd5b8035906020019184600183028401116401000000008311171561068f57600080fd5b91908080601f016020809104026020016040519081016040528093929190818152602001838380828437600081840152601f19601f820116905080830192505050505050509192919290505050611bb0565b604051808215151515815260200191505060405180910390f35b34801561070757600080fd5b506107346004803603602081101561071e57600080fd5b8101908080359060200190929190505050611c9d565b6040518082815260200191505060405180910390f35b34801561075657600080fd5b506107a36004803603604081101561076d57600080fd5b81019080803573ffffffffffffffffffffffffffffffffffffffff16906020019092919080359060200190929190505050611cb5565b604051808215151515815260200191505060405180910390f35b3480156107c957600080fd5b5061080c600480360360208110156107e057600080fd5b81019080803573ffffffffffffffffffffffffffffffffffffffff169060200190929190505050611f16565b6040518082815260200191505060405180910390f35b34801561082e57600080fd5b50610a28600480360361014081101561084657600080fd5b810190808035906020019064010000000081111561086357600080fd5b82018360208201111561087557600080fd5b8035906020019184600183028401116401000000008311171561089757600080fd5b91908080601f016020809104026020016040519081016040528093929190818152602001838380828437600081840152601f19601f820116905080830192505050505050509192919290803573ffffffffffffffffffffffffffffffffffffffff169060200190929190803573ffffffffffffffffffffffffffffffffffffffff169060200190929190803573ffffffffffffffffffffffffffffffffffffffff169060200190929190803573ffffffffffffffffffffffffffffffffffffffff16906020019092919080359060200190929190803590602001909291908035906020019092919080359060200190929190803590602001906401000000008111156109a257600080fd5b8201836020820111156109b457600080fd5b803590602001918460018302840111640100000000831117156109d657600080fd5b91908080601f016020809104026020016040519081016040528093929190818152602001838380828437600081840152601f19601f820116905080830192505050505050509192919290505050611f5f565b604051808215151515815260200191505060405180910390f35b348015610a4e57600080fd5b50610c486004803603610140811015610a6657600080fd5b8101908080359060200190640100000000811115610a8357600080fd5b820183602082011115610a9557600080fd5b80359060200191846001830284011164010000000083111715610ab757600080fd5b91908080601f016020809104026020016040519081016040528093929190818152602001838380828437600081840152601f19601f820116905080830192505050505050509192919290803573ffffffffffffffffffffffffffffffffffffffff169060200190929190803573ffffffffffffffffffffffffffffffffffffffff169060200190929190803573ffffffffffffffffffffffffffffffffffffffff169060200190929190803573ffffffffffffffffffffffffffffffffffffffff1690602001909291908035906020019092919080359060200190929190803590602001909291908035906020019092919080359060200190640100000000811115610bc257600080fd5b820183602082011115610bd457600080fd5b80359060200191846001830284011164010000000083111715610bf657600080fd5b91908080601f016020809104026020016040519081016040528093929190818152602001838380828437600081840152601f19601f820116905080830192505050505050509192919290505050612046565b604051808215151515815260200191505060405180910390f35b348015610c6e57600080fd5b50610c776120d8565b6040518082815260200191505060405180910390f35b348015610c9957600080fd5b50610d9d60048036036080811015610cb057600080fd5b81019080803573ffffffffffffffffffffffffffffffffffffffff16906020019092919080359060200190929190803573ffffffffffffffffffffffffffffffffffffffff16906020019092919080359060200190640100000000811115610d1757600080fd5b820183602082011115610d2957600080fd5b80359060200191846001830284011164010000000083111715610d4b57600080fd5b91908080601f016020809104026020016040519081016040528093929190818152602001838380828437600081840152601f19601f820116905080830192505050505050509192919290505050612161565b604051808215151515815260200191505060405180910390f35b348015610dc357600080fd5b50610f266004803603610120811015610ddb57600080fd5b8101908080359060200190640100000000811115610df857600080fd5b820183602082011115610e0a57600080fd5b80359060200191846001830284011164010000000083111715610e2c57600080fd5b91908080601f016020809104026020016040519081016040528093929190818152602001838380828437600081840152601f19601f820116905080830192505050505050509192919290803573ffffffffffffffffffffffffffffffffffffffff169060200190929190803573ffffffffffffffffffffffffffffffffffffffff169060200190929190803573ffffffffffffffffffffffffffffffffffffffff169060200190929190803573ffffffffffffffffffffffffffffffffffffffff169060200190929190803590602001909291908035906020019092919080359060200190929190803590602001909291905050506121d2565b6040518082815260200191505060405180910390f35b348015610f4857600080fd5b50610f51612321565b6040518080602001828103825283818151815260200191508051906020019080838360005b83811015610f91578082015181840152602081019050610f76565b50505050905090810190601f168015610fbe5780820380516001836020036101000a031916815260200191505b509250505060405180910390f35b348015610fd857600080fd5b5061102560048036036040811015610fef57600080fd5b81019080803573ffffffffffffffffffffffffffffffffffffffff169060200190929190803590602001909291905050506123bf565b604051808215151515815260200191505060405180910390f35b34801561104b57600080fd5b506111ae600480360361012081101561106357600080fd5b810190808035906020019064010000000081111561108057600080fd5b82018360208201111561109257600080fd5b803590602001918460018302840111640100000000831117156110b457600080fd5b91908080601f016020809104026020016040519081016040528093929190818152602001838380828437600081840152601f19601f820116905080830192505050505050509192919290803573ffffffffffffffffffffffffffffffffffffffff169060200190929190803573ffffffffffffffffffffffffffffffffffffffff169060200190929190803573ffffffffffffffffffffffffffffffffffffffff169060200190929190803573ffffffffffffffffffffffffffffffffffffffff1690602001909291908035906020019092919080359060200190929190803590602001909291908035906020019092919050505061255a565b6040518082815260200191505060405180910390f35b3480156111d057600080fd5b506111d961264d565b6040518082815260200191505060405180910390f35b3480156111fb57600080fd5b506112286004803603602081101561121257600080fd5b810190808035906020019092919050505061266d565b604051808215151515815260200191505060405180910390f35b34801561124e57600080fd5b506113c96004803603608081101561126557600080fd5b810190808035906020019064010000000081111561128257600080fd5b82018360208201111561129457600080fd5b803590602001918460018302840111640100000000831117156112b657600080fd5b91908080601f016020809104026020016040519081016040528093929190818152602001838380828437600081840152601f19601f8201169050808301925050505050505091929192908035906020019064010000000081111561131957600080fd5b82018360208201111561132b57600080fd5b8035906020019184600183028401116401000000008311171561134d57600080fd5b91908080601f016020809104026020016040519081016040528093929190818152602001838380828437600081840152601f19601f82011690508083019250505050505050919291929080359060200190929190803573ffffffffffffffffffffffffffffffffffffffff16906020019092919050505061289f565b6040518082815260200191505060405180910390f35b3480156113eb57600080fd5b5061144e6004803603604081101561140257600080fd5b81019080803573ffffffffffffffffffffffffffffffffffffffff169060200190929190803573ffffffffffffffffffffffffffffffffffffffff1690602001909291905050506129ad565b6040518082815260200191505060405180910390f35b34801561147057600080fd5b5061166a600480360361014081101561148857600080fd5b81019080803590602001906401000000008111156114a557600080fd5b8201836020820111156114b757600080fd5b803590602001918460018302840111640100000000831117156114d957600080fd5b91908080601f016020809104026020016040519081016040528093929190818152602001838380828437600081840152601f19601f820116905080830192505050505050509192919290803573ffffffffffffffffffffffffffffffffffffffff169060200190929190803573ffffffffffffffffffffffffffffffffffffffff169060200190929190803573ffffffffffffffffffffffffffffffffffffffff169060200190929190803573ffffffffffffffffffffffffffffffffffffffff16906020019092919080359060200190929190803590602001909291908035906020019092919080359060200190929190803590602001906401000000008111156115e457600080fd5b8201836020820111156115f657600080fd5b8035906020019184600183028401116401000000008311171561161857600080fd5b91908080601f016020809104026020016040519081016040528093929190818152602001838380828437600081840152601f19601f8201169050808301925050505050505091929192905050506129d2565b604051808215151515815260200191505060405180910390f35b60008054600181600116156101000203166002900480601f01602080910402602001604051908101604052809291908181526020018280546001816001161561010002031660029004801561171a5780601f106116ef5761010080835404028352916020019161171a565b820191906000526020600020905b8154815290600101906020018083116116fd57829003601f168201915b505050505081565b600081600560003373ffffffffffffffffffffffffffffffffffffffff1673ffffffffffffffffffffffffffffffffffffffff16815260200190815260200160002060008573ffffffffffffffffffffffffffffffffffffffff1673ffffffffffffffffffffffffffffffffffffffff168152602001908152602001600020819055508273ffffffffffffffffffffffffffffffffffffffff163373ffffffffffffffffffffffffffffffffffffffff167f8c5be1e5ebec7d5bd14f71427d1e84f3dd0314c0f7b2291e5b200ac8c7c3b925846040518082815260200191505060405180910390a36001905092915050565b6000600560008473ffffffffffffffffffffffffffffffffffffffff1673ffffffffffffffffffffffffffffffffffffffff16815260200190815260200160002060008373ffffffffffffffffffffffffffffffffffffffff1673ffffffffffffffffffffffffffffffffffffffff16815260200190815260200160002054905092915050565b6000600354905090565b600060066000838152602001908152602001600020549050919050565b600061191682600460008773ffffffffffffffffffffffffffffffffffffffff1673ffffffffffffffffffffffffffffffffffffffff16815260200190815260200160002054612a7a90919063ffffffff16565b600460008673ffffffffffffffffffffffffffffffffffffffff1673ffffffffffffffffffffffffffffffffffffffff168152602001908152602001600020819055506119e882600560008773ffffffffffffffffffffffffffffffffffffffff1673ffffffffffffffffffffffffffffffffffffffff16815260200190815260200160002060008673ffffffffffffffffffffffffffffffffffffffff1673ffffffffffffffffffffffffffffffffffffffff16815260200190815260200160002054612a7a90919063ffffffff16565b600560008673ffffffffffffffffffffffffffffffffffffffff1673ffffffffffffffffffffffffffffffffffffffff16815260200190815260200160002060008573ffffffffffffffffffffffffffffffffffffffff1673ffffffffffffffffffffffffffffffffffffffff16815260200190815260200160002081905550611aba82600460008673ffffffffffffffffffffffffffffffffffffffff1673ffffffffffffffffffffffffffffffffffffffff16815260200190815260200160002054612a9390919063ffffffff16565b600460008573ffffffffffffffffffffffffffffffffffffffff1673ffffffffffffffffffffffffffffffffffffffff168152602001908152602001600020819055508273ffffffffffffffffffffffffffffffffffffffff168473ffffffffffffffffffffffffffffffffffffffff167fddf252ad1be2c89b69c2b068fc378daa952ba7f163c4a11628f55a4df523b3ef846040518082815260200191505060405180910390a3600190509392505050565b60046020528060005260406000206000915090505481565b73b6ed7644c69416d67b522e20bc294a9a9b405b3181565b600260009054906101000a900460ff1681565b600080611bc48c8c8c8c8c8c8c8c8c61255a565b90506000611bd28285612ab1565b90508a73ffffffffffffffffffffffffffffffffffffffff168173ffffffffffffffffffffffffffffffffffffffff16141515611c0e57600080fd5b3373ffffffffffffffffffffffffffffffffffffffff168b73ffffffffffffffffffffffffffffffffffffffff16141515611c4857600080fd5b60006006600084815260200190815260200160002054905060026006600085815260200190815260200160002081905550600081141515611c8857600080fd5b600193505050509a9950505050505050505050565b60066020528060005260406000206000915090505481565b6000808210151515611cc657600080fd5b73b6ed7644c69416d67b522e20bc294a9a9b405b3173ffffffffffffffffffffffffffffffffffffffff166323b872dd8430856040518463ffffffff167c0100000000000000000000000000000000000000000000000000000000028152600401808473ffffffffffffffffffffffffffffffffffffffff1673ffffffffffffffffffffffffffffffffffffffff1681526020018373ffffffffffffffffffffffffffffffffffffffff1673ffffffffffffffffffffffffffffffffffffffff1681526020018281526020019350505050602060405180830381600087803b158015611db157600080fd5b505af1158015611dc5573d6000803e3d6000fd5b505050506040513d6020811015611ddb57600080fd5b81019080805190602001909291905050501515611df757600080fd5b611e4982600460008673ffffffffffffffffffffffffffffffffffffffff1673ffffffffffffffffffffffffffffffffffffffff16815260200190815260200160002054612a9390919063ffffffff16565b600460008573ffffffffffffffffffffffffffffffffffffffff1673ffffffffffffffffffffffffffffffffffffffff16815260200190815260200160002081905550611ea182600354612a9390919063ffffffff16565b6003819055508273ffffffffffffffffffffffffffffffffffffffff163073ffffffffffffffffffffffffffffffffffffffff167fddf252ad1be2c89b69c2b068fc378daa952ba7f163c4a11628f55a4df523b3ef846040518082815260200191505060405180910390a36001905092915050565b6000600460008373ffffffffffffffffffffffffffffffffffffffff1673ffffffffffffffffffffffffffffffffffffffff168152602001908152602001600020549050919050565b6000611fa06040805190810160405280600781526020017f617070726f7665000000000000000000000000000000000000000000000000008152508c612b95565b158015611fe95750611fe76040805190810160405280600881526020017f7472616e736665720000000000000000000000000000000000000000000000008152508c612b95565b155b1515611ff457600080fd5b60006120078c8c8c8c8c8c8c8c8c61255a565b905061201c8c8c8c8c8c8c8c8c8c8a8d612cda565b151561202757600080fd5b6120338a8a898f613024565b60019150509a9950505050505050505050565b60006120876040805190810160405280600781526020017f617070726f7665000000000000000000000000000000000000000000000000008152508c612b95565b151561209257600080fd5b60006120a58c8c8c8c8c8c8c8c8c61255a565b90506120ba8c8c8c8c8c8c8c8c8c8a8d612cda565b15156120c557600080fd5b60019150509a9950505050505050505050565b600060405180807f454950373132446f6d61696e28737472696e6720636f6e74726163744e616d6581526020017f2c737472696e672076657273696f6e2c75696e7432353620636861696e49642c81526020017f6164647265737320766572696679696e67436f6e747261637429000000000000815250605a0190506040518091039020905090565b600073b6ed7644c69416d67b522e20bc294a9a9b405b3173ffffffffffffffffffffffffffffffffffffffff168373ffffffffffffffffffffffffffffffffffffffff161415156121b157600080fd5b6121bb8585611cb5565b15156121c657600080fd5b60019050949350505050565b6000604051808061333660a4913960a401905060405180910390208a805190602001208a8a8a8a8a8a8a8a604051602001808b81526020018a81526020018973ffffffffffffffffffffffffffffffffffffffff1673ffffffffffffffffffffffffffffffffffffffff1681526020018873ffffffffffffffffffffffffffffffffffffffff1673ffffffffffffffffffffffffffffffffffffffff1681526020018773ffffffffffffffffffffffffffffffffffffffff1673ffffffffffffffffffffffffffffffffffffffff1681526020018673ffffffffffffffffffffffffffffffffffffffff1673ffffffffffffffffffffffffffffffffffffffff1681526020018581526020018481526020018381526020018281526020019a50505050505050505050506040516020818303038152906040528051906020012090509998505050505050505050565b60018054600181600116156101000203166002900480601f0160208091040260200160405190810160405280929190818152602001828054600181600116156101000203166002900480156123b75780601f1061238c576101008083540402835291602001916123b7565b820191906000526020600020905b81548152906001019060200180831161239a57829003601f168201915b505050505081565b600061241382600460003373ffffffffffffffffffffffffffffffffffffffff1673ffffffffffffffffffffffffffffffffffffffff16815260200190815260200160002054612a7a90919063ffffffff16565b600460003373ffffffffffffffffffffffffffffffffffffffff1673ffffffffffffffffffffffffffffffffffffffff168152602001908152602001600020819055506124a882600460008673ffffffffffffffffffffffffffffffffffffffff1673ffffffffffffffffffffffffffffffffffffffff16815260200190815260200160002054612a9390919063ffffffff16565b600460008573ffffffffffffffffffffffffffffffffffffffff1673ffffffffffffffffffffffffffffffffffffffff168152602001908152602001600020819055508273ffffffffffffffffffffffffffffffffffffffff163373ffffffffffffffffffffffffffffffffffffffff167fddf252ad1be2c89b69c2b068fc378daa952ba7f163c4a11628f55a4df523b3ef846040518082815260200191505060405180910390a36001905092915050565b6000806125d46040805190810160405280600b81526020017f4c6176612057616c6c65740000000000000000000000000000000000000000008152506040805190810160405280600181526020017f310000000000000000000000000000000000000000000000000000000000000081525060013061289f565b6125e58c8c8c8c8c8c8c8c8c6121d2565b60405160200180807f190100000000000000000000000000000000000000000000000000000000000081525060020183815260200182815260200192505050604051602081830303815290604052805190602001209050809150509998505050505050505050565b6000604051808061333660a4913960a40190506040518091039020905090565b6000803390506000831015151561268357600080fd5b6126d583600460008473ffffffffffffffffffffffffffffffffffffffff1673ffffffffffffffffffffffffffffffffffffffff16815260200190815260200160002054612a7a90919063ffffffff16565b600460008373ffffffffffffffffffffffffffffffffffffffff1673ffffffffffffffffffffffffffffffffffffffff1681526020019081526020016000208190555061272d83600354612a7a90919063ffffffff16565b6003819055503073ffffffffffffffffffffffffffffffffffffffff168173ffffffffffffffffffffffffffffffffffffffff167fddf252ad1be2c89b69c2b068fc378daa952ba7f163c4a11628f55a4df523b3ef856040518082815260200191505060405180910390a373b6ed7644c69416d67b522e20bc294a9a9b405b3173ffffffffffffffffffffffffffffffffffffffff1663a9059cbb82856040518363ffffffff167c0100000000000000000000000000000000000000000000000000000000028152600401808373ffffffffffffffffffffffffffffffffffffffff1673ffffffffffffffffffffffffffffffffffffffff16815260200182815260200192505050602060405180830381600087803b15801561284f57600080fd5b505af1158015612863573d6000803e3d6000fd5b505050506040513d602081101561287957600080fd5b8101908080519060200190929190505050151561289557600080fd5b6001915050919050565b600060405180807f454950373132446f6d61696e28737472696e6720636f6e74726163744e616d6581526020017f2c737472696e672076657273696f6e2c75696e7432353620636861696e49642c81526020017f6164647265737320766572696679696e67436f6e747261637429000000000000815250605a0190506040518091039020858051906020012085805190602001208585604051602001808681526020018581526020018481526020018381526020018273ffffffffffffffffffffffffffffffffffffffff1673ffffffffffffffffffffffffffffffffffffffff16815260200195505050505050604051602081830303815290604052805190602001209050949350505050565b6005602052816000526040600020602052806000526040600020600091509150505481565b6000612a136040805190810160405280600881526020017f7472616e736665720000000000000000000000000000000000000000000000008152508c612b95565b1515612a1e57600080fd5b6000612a318c8c8c8c8c8c8c8c8c61255a565b9050612a468c8c8c8c8c8c8c8c8c8a8d612cda565b1515612a5157600080fd5b612a5c8a8a896118c2565b1515612a6757600080fd5b60019150509a9950505050505050505050565b6000828211151515612a8857fe5b818303905092915050565b6000808284019050838110151515612aa757fe5b8091505092915050565b60008060008060418551141515612ace5760009350505050612b8f565b6020850151925060408501519150606085015160001a9050601b8160ff161015612af957601b810190505b601b8160ff1614158015612b115750601c8160ff1614155b15612b225760009350505050612b8f565b60018682858560405160008152602001604052604051808581526020018460ff1660ff1681526020018381526020018281526020019450505050506020604051602081039080840390855afa158015612b7f573d6000803e3d6000fd5b5050506020604051035193505050505b92915050565b600081518351141515612bab5760009050612cd4565b60008090505b8351811015612cce578281815181101515612bc857fe5b9060200101517f010000000000000000000000000000000000000000000000000000000000000090047f0100000000000000000000000000000000000000000000000000000000000000027effffffffffffffffffffffffffffffffffffffffffffffffffffffffffffff19168482815181101515612c4357fe5b9060200101517f010000000000000000000000000000000000000000000000000000000000000090047f0100000000000000000000000000000000000000000000000000000000000000027effffffffffffffffffffffffffffffffffffffffffffffffffffffffffffff1916141515612cc1576000915050612cd4565b8080600101915050612bb1565b50600190505b92915050565b60008073ffffffffffffffffffffffffffffffffffffffff168b73ffffffffffffffffffffffffffffffffffffffff161480612d535750612d1a8b613186565b158015612d5257508a73ffffffffffffffffffffffffffffffffffffffff163373ffffffffffffffffffffffffffffffffffffffff16145b5b80612e385750612d628b613186565b8015612e3757508a73ffffffffffffffffffffffffffffffffffffffff16638c0636866040518163ffffffff167c0100000000000000000000000000000000000000000000000000000000028152600401602060405180830381600087803b158015612dcd57600080fd5b505af1158015612de1573d6000803e3d6000fd5b505050506040513d6020811015612df757600080fd5b810190808051906020019092919050505073ffffffffffffffffffffffffffffffffffffffff163373ffffffffffffffffffffffffffffffffffffffff16145b5b1515612e4357600080fd5b6000612e4f8484612ab1565b90508073ffffffffffffffffffffffffffffffffffffffff168b73ffffffffffffffffffffffffffffffffffffffff16141515612e8b57600080fd5b8873ffffffffffffffffffffffffffffffffffffffff163073ffffffffffffffffffffffffffffffffffffffff16141515612ec557600080fd5b8543101515612ed357600080fd5b60006006600086815260200190815260200160002054905060016006600087815260200190815260200160002081905550600081141515612f1357600080fd5b612f1e8c338a613199565b1515612f2957600080fd5b88600560008e73ffffffffffffffffffffffffffffffffffffffff1673ffffffffffffffffffffffffffffffffffffffff16815260200190815260200160002060008d73ffffffffffffffffffffffffffffffffffffffff1673ffffffffffffffffffffffffffffffffffffffff168152602001908152602001600020819055508a73ffffffffffffffffffffffffffffffffffffffff168c73ffffffffffffffffffffffffffffffffffffffff167f8c5be1e5ebec7d5bd14f71427d1e84f3dd0314c0f7b2291e5b200ac8c7c3b9258b6040518082815260200191505060405180910390a36001925050509b9a5050505050505050505050565b8273ffffffffffffffffffffffffffffffffffffffff16638f4ffcb1858430856040518563ffffffff167c0100000000000000000000000000000000000000000000000000000000028152600401808573ffffffffffffffffffffffffffffffffffffffff1673ffffffffffffffffffffffffffffffffffffffff1681526020018481526020018373ffffffffffffffffffffffffffffffffffffffff1673ffffffffffffffffffffffffffffffffffffffff16815260200180602001828103825283818151815260200191508051906020019080838360005b838110156131195780820151818401526020810190506130fe565b50505050905090810190601f1680156131465780820380516001836020036101000a031916815260200191505b5095505050505050600060405180830381600087803b15801561316857600080fd5b505af115801561317c573d6000803e3d6000fd5b5050505050505050565b600080823b905060008111915050919050565b60006131ed82600460008773ffffffffffffffffffffffffffffffffffffffff1673ffffffffffffffffffffffffffffffffffffffff16815260200190815260200160002054612a7a90919063ffffffff16565b600460008673ffffffffffffffffffffffffffffffffffffffff1673ffffffffffffffffffffffffffffffffffffffff1681526020019081526020016000208190555061328282600460008673ffffffffffffffffffffffffffffffffffffffff1673ffffffffffffffffffffffffffffffffffffffff16815260200190815260200160002054612a9390919063ffffffff16565b600460008573ffffffffffffffffffffffffffffffffffffffff1673ffffffffffffffffffffffffffffffffffffffff168152602001908152602001600020819055508273ffffffffffffffffffffffffffffffffffffffff168473ffffffffffffffffffffffffffffffffffffffff167fddf252ad1be2c89b69c2b068fc378daa952ba7f163c4a11628f55a4df523b3ef846040518082815260200191505060405180910390a360019050939250505056fe4c6176615061636b657428737472696e67206d6574686f644e616d652c616464726573732072656c6179417574686f726974792c616464726573732066726f6d2c6164647265737320746f2c616464726573732077616c6c65742c75696e7432353620746f6b656e732c75696e743235362072656c61796572526577617264546f6b656e732c75696e7432353620657870697265732c75696e74323536206e6f6e636529a165627a7a7230582073cc10477743284a4a48cba3d8c744aefc5f1211102e72df1ace2af993e6348d0029",
  "source": "pragma solidity ^0.5.0;\n\n\n\n/**------------------------------------\n\nLAVA Token  (0xBTC Token Proxy with Lava Enabled)\n\n0xBTC proxy token contract.  ApproveAndCall() 0xBTC to this contract to receive LAVA tokens. Alternatively, Approve() 0xBTC to this contract and then call the mutateTokens() method. Do not directly transfer 0xBTC to this contract using Transfer() or TransferFrom().\n\nLAVA tokens can be spent not just by your account, but by any account as long as they have a lava packet signature, signed by your private key, which validates that specific transaction.\n\nA relayer reward can be specified in a signed packet.  This means that LAVA can be sent by paying an incentive fee of LAVA to relayers for the gas, not ETH.\n\nLAVA is 1:1 pegged to 0xBTC.\n\n\nThis contract implements EIP712 for Signing Typed Data:\nhttps://github.com/MetaMask/eth-sig-util\n\n------------------------------------*/\n\n\n/**\n * @title SafeMath\n * @dev Math operations with safety checks that throw on error\n */\nlibrary SafeMath {\n\n  /**\n  * @dev Multiplies two numbers, throws on overflow.\n  */\n  function mul(uint256 a, uint256 b) internal pure returns (uint256) {\n    if (a == 0) {\n      return 0;\n    }\n    uint256 c = a * b;\n    assert(c / a == b);\n    return c;\n  }\n\n  /**\n  * @dev Integer division of two numbers, truncating the quotient.\n  */\n  function div(uint256 a, uint256 b) internal pure returns (uint256) {\n    // assert(b > 0); // Solidity automatically throws when dividing by 0\n    uint256 c = a / b;\n    // assert(a == b * c + a % b); // There is no case in which this doesn't hold\n    return c;\n  }\n\n  /**\n  * @dev Substracts two numbers, throws on overflow (i.e. if subtrahend is greater than minuend).\n  */\n  function sub(uint256 a, uint256 b) internal pure returns (uint256) {\n    assert(b <= a);\n    return a - b;\n  }\n\n  /**\n  * @dev Adds two numbers, throws on overflow.\n  */\n  function add(uint256 a, uint256 b) internal pure returns (uint256) {\n    uint256 c = a + b;\n    assert(c >= a);\n    return c;\n  }\n}\n\n\ncontract ECRecovery {\n\n  /**\n   * @dev Recover signer address from a message by using their signature\n   * @param hash bytes32 message, the hash is the signed message. What is recovered is the signer address.\n   * @param sig bytes signature, the signature is generated using web3.eth.sign()\n   */\n  function recover(bytes32 hash, bytes memory sig) internal  pure returns (address) {\n    bytes32 r;\n    bytes32 s;\n    uint8 v;\n\n    //Check the signature length\n    if (sig.length != 65) {\n      return (address(0));\n    }\n\n    // Divide the signature in r, s and v variables\n    assembly {\n      r := mload(add(sig, 32))\n      s := mload(add(sig, 64))\n      v := byte(0, mload(add(sig, 96)))\n    }\n\n    // Version of signature should be 27 or 28, but 0 and 1 are also possible versions\n    if (v < 27) {\n      v += 27;\n    }\n\n    // If the version is correct return the signer address\n    if (v != 27 && v != 28) {\n      return (address(0));\n    } else {\n      return ecrecover(hash, v, r, s);\n    }\n  }\n\n}\n\n\n\ncontract RelayAuthorityInterface {\n    function getRelayAuthority() public returns (address);\n}\n\n\ncontract ERC20Interface {\n    function totalSupply() public view returns (uint);\n    function balanceOf(address tokenOwner) public view returns (uint balance);\n    function allowance(address tokenOwner, address spender) public view returns (uint remaining);\n    function transfer(address to, uint tokens) public returns (bool success);\n    function approve(address spender, uint tokens) public returns (bool success);\n    function transferFrom(address from, address to, uint tokens) public returns (bool success);\n\n    event Transfer(address indexed from, address indexed to, uint tokens);\n    event Approval(address indexed tokenOwner, address indexed spender, uint tokens);\n}\n\n\ncontract ApproveAndCallFallBack {\n    function receiveApproval(address from, uint256 tokens, address token, bytes memory data) public;\n}\n\n\ncontract LavaToken is ECRecovery{\n\n    using SafeMath for uint;\n\n    address constant public masterToken = 0xB6eD7644C69416d67B522e20bC294A9a9B405B31;\n\n    string public name     = \"Lava\";\n    string public symbol   = \"LAVA\";\n    uint8  public decimals = 8;\n    uint private _totalSupply;\n\n    event  Approval(address indexed src, address indexed ext, uint amt);\n    event  Transfer(address indexed src, address indexed dst, uint amt);\n    event  Deposit(address indexed dst, uint amt);\n    event  Withdrawal(address indexed src, uint amt);\n\n    mapping (address => uint)                       public  balances;\n    mapping (address => mapping (address => uint))  public  allowance;\n\n    mapping (bytes32 => uint256)                    public burnedSignatures;\n\n\n  struct LavaPacket {\n    string methodName; //approve, transfer, or a custom data byte32 for ApproveAndCall()\n    address relayAuthority; //either a contract or an account\n    address from; //the packet origin and signer\n    address to; //the recipient of tokens\n    address wallet;  //this contract address\n    uint256 tokens; //the amount of tokens to give to the recipient\n    uint256 relayerRewardTokens; //the amount of tokens to give to msg.sender\n    uint256 expires; //the eth block number this packet expires at\n    uint256 nonce; //a random number to ensure that packet hashes are always unique (optional)\n  }\n\n\n\n\n\n\n  bytes32 constant EIP712DOMAIN_TYPEHASH = keccak256(\n        \"EIP712Domain(string contractName,string version,uint256 chainId,address verifyingContract)\"\n    );\n\n function getLavaDomainTypehash() public pure returns (bytes32) {\n    return EIP712DOMAIN_TYPEHASH;\n }\n\n  function getEIP712DomainHash(string memory contractName, string memory version, uint256 chainId, address verifyingContract) public pure returns (bytes32) {\n\n    return keccak256(abi.encode(\n          EIP712DOMAIN_TYPEHASH,\n          keccak256(bytes(contractName)),\n          keccak256(bytes(version)),\n          chainId,\n          verifyingContract\n      ));\n  }\n\n  bytes32 constant LAVAPACKET_TYPEHASH = keccak256(\n     \"LavaPacket(string methodName,address relayAuthority,address from,address to,address wallet,uint256 tokens,uint256 relayerRewardTokens,uint256 expires,uint256 nonce)\"\n );\n\n  function getLavaPacketTypehash() public pure returns (bytes32) {\n     return LAVAPACKET_TYPEHASH;\n }\n\n\n\n function getLavaPacketHash(string memory methodName, address relayAuthority,address from,address to, address wallet,uint256 tokens,uint256 relayerRewardTokens,uint256 expires,uint256 nonce) public pure returns (bytes32) {\n        return keccak256(abi.encode(\n            LAVAPACKET_TYPEHASH,\n            keccak256(bytes(methodName)),\n            relayAuthority,\n            from,\n            to,\n            wallet,\n            tokens,\n            relayerRewardTokens,\n            expires,\n            nonce\n        ));\n    }\n\n\n    constructor() public {\n\n    }\n\n    /**\n    * Do not allow ETH to enter\n    */\n     function() external payable\n     {\n         revert();\n     }\n\n\n    /**\n     * @dev Deposit original tokens, receive proxy tokens 1:1\n     * This method requires token approval.\n     *\n     * @param amount of tokens to deposit\n     */\n    function mutateTokens(address from, uint amount) public returns (bool)\n    {\n\n        require( amount >= 0 );\n\n        require( ERC20Interface( masterToken ).transferFrom( from, address(this), amount) );\n\n        balances[from] = balances[from].add(amount);\n        _totalSupply = _totalSupply.add(amount);\n\n        emit Transfer(address(this), from, amount);\n\n        return true;\n    }\n\n\n\n    /**\n     * @dev Withdraw original tokens, burn proxy tokens 1:1\n     *\n     *\n     *\n     * @param amount of tokens to withdraw\n     */\n    function unmutateTokens( uint amount) public returns (bool)\n    {\n        address from = msg.sender;\n        require( amount >= 0 );\n\n        balances[from] = balances[from].sub(amount);\n        _totalSupply = _totalSupply.sub(amount);\n\n        emit Transfer(from, address(this), amount);\n\n        require( ERC20Interface( masterToken ).transfer( from, amount) );\n\n        return true;\n    }\n\n\n\n   //standard ERC20 method\n    function totalSupply() public view returns (uint) {\n        return _totalSupply;\n    }\n\n   //standard ERC20 method\n     function balanceOf(address tokenOwner) public view returns (uint balance) {\n        return balances[tokenOwner];\n    }\n\n     //standard ERC20 method\n    function getAllowance(address owner, address spender) public view returns (uint)\n    {\n      return allowance[owner][spender];\n    }\n\n   //standard ERC20 method\n  function approve(address spender,   uint tokens) public returns (bool success) {\n      allowance[msg.sender][spender] = tokens;\n      emit Approval(msg.sender, spender, tokens);\n      return true;\n  }\n\n\n  //standard ERC20 method\n   function transfer(address to,  uint tokens) public returns (bool success) {\n        balances[msg.sender] = balances[msg.sender].sub(tokens);\n        balances[to] = balances[to].add(tokens);\n        emit Transfer(msg.sender, to, tokens);\n        return true;\n    }\n\n\n   //standard ERC20 method\n   function transferFrom( address from, address to,  uint tokens) public returns (bool success) {\n       balances[from] = balances[from].sub(tokens);\n       allowance[from][to] = allowance[from][to].sub(tokens);\n       balances[to] = balances[to].add(tokens);\n       emit Transfer( from, to, tokens);\n       return true;\n   }\n\n  //internal method for transferring tokens to the relayer reward as incentive for submitting the packet\n   function _giveRelayerReward( address from, address to, uint tokens) internal returns (bool success){\n     balances[from] = balances[from].sub(tokens);\n     balances[to] = balances[to].add(tokens);\n     emit Transfer( from, to, tokens);\n     return true;\n   }\n\n\n    /*\n        Read-only method that returns the EIP712 message structure to be signed for a lava packet.\n    */\n\n   function getLavaTypedDataHash(string memory methodName, address relayAuthority,address from,address to, address wallet,uint256 tokens,uint256 relayerRewardTokens,uint256 expires,uint256 nonce) public view returns (bytes32) {\n\n\n          // Note: we need to use `encodePacked` here instead of `encode`.\n          bytes32 digest = keccak256(abi.encodePacked(\n              \"\\x19\\x01\",\n              getEIP712DomainHash('Lava Wallet','1',1,address(this)),\n              getLavaPacketHash(methodName,relayAuthority,from,to,wallet,tokens,relayerRewardTokens,expires,nonce)\n          ));\n          return digest;\n      }\n\n\n\n    /*\n        The internal method for processing the internal data structure of an offchain lava packet with signature.\n    */\n\n   function _tokenApprovalWithSignature(  string memory methodName, address relayAuthority,address from,address to, address wallet,uint256 tokens,uint256 relayerRewardTokens,uint256 expires,uint256 nonce, bytes32 sigHash, bytes memory signature) internal returns (bool success)\n   {\n\n       /*\n        Always allow relaying a packet if the specified relayAuthority is 0.\n        If the authority address is not a contract, allow it to relay\n        If the authority address is a contract, allow its defined 'getAuthority()' delegate to relay\n\n       */\n\n\n       require( relayAuthority == address(0x0)\n         || (!addressContainsContract(relayAuthority) && msg.sender == relayAuthority)\n         || (addressContainsContract(relayAuthority) && msg.sender == RelayAuthorityInterface(relayAuthority).getRelayAuthority())  );\n\n\n\n       address recoveredSignatureSigner = recover(sigHash,signature);\n\n\n       //make sure the signer is the depositor of the tokens\n       require(from == recoveredSignatureSigner);\n\n       //make sure this is the correct 'wallet' for this packet\n       require(address(this) == wallet);\n\n       //make sure the signature has not expired\n       require(block.number < expires);\n\n       uint previousBurnedSignatureValue = burnedSignatures[sigHash];\n       burnedSignatures[sigHash] = 0x1; //spent\n       require(previousBurnedSignatureValue == 0x0);\n\n       //relayer reward tokens, has nothing to do with allowance\n       require(_giveRelayerReward(from, msg.sender,   relayerRewardTokens));\n\n       //approve transfer of tokens\n       allowance[from][to] = tokens;\n       emit Approval(from,  to, tokens);\n\n\n       return true;\n   }\n\n\n\n   function approveTokensWithSignature(string memory methodName, address relayAuthority,address from,address to, address wallet,uint256 tokens,uint256 relayerRewardTokens,uint256 expires,uint256 nonce, bytes memory signature) public returns (bool success)\n   {\n       require(bytesEqual('approve',bytes(methodName)));\n\n       bytes32 sigHash = getLavaTypedDataHash(methodName,relayAuthority,from,to,wallet,tokens,relayerRewardTokens,expires,nonce);\n\n       require(_tokenApprovalWithSignature(methodName,relayAuthority,from,to,wallet,tokens,relayerRewardTokens,expires,nonce,sigHash,signature));\n\n\n       return true;\n   }\n\n\n  function transferTokensWithSignature(string memory methodName, address relayAuthority,address from,address to, address wallet,uint256 tokens,uint256 relayerRewardTokens,uint256 expires,uint256 nonce, bytes memory signature) public returns (bool success)\n  {\n\n      require(bytesEqual('transfer',bytes(methodName)));\n\n      //check to make sure that signature == ecrecover signature\n      bytes32 sigHash = getLavaTypedDataHash(methodName,relayAuthority,from,to,wallet,tokens,relayerRewardTokens,expires,nonce);\n\n      require(_tokenApprovalWithSignature(methodName,relayAuthority,from,to,wallet,tokens,relayerRewardTokens,expires,nonce,sigHash,signature));\n\n      //it can be requested that fewer tokens be sent that were approved -- the whole approval will be invalidated though\n      require(transferFrom( from, to,  tokens));\n\n\n      return true;\n\n  }\n\n\n     /*\n      Approve LAVA tokens for a smart contract and call the contracts receiveApproval method in a single packet transaction.\n\n      Uses the methodName as the 'bytes' for the fallback function to the remote contract\n\n      */\n     function approveAndCallWithSignature( string memory methodName, address relayAuthority,address from,address to, address wallet,uint256 tokens,uint256 relayerRewardTokens,uint256 expires,uint256 nonce, bytes memory signature ) public returns (bool success)   {\n\n          require(!bytesEqual('approve',bytes(methodName))  && !bytesEqual('transfer',bytes(methodName)));\n\n           //check to make sure that signature == ecrecover signature\n          bytes32 sigHash = getLavaTypedDataHash(methodName,relayAuthority,from,to,wallet,tokens,relayerRewardTokens,expires,nonce);\n\n          require(_tokenApprovalWithSignature(methodName,relayAuthority,from,to,wallet,tokens,relayerRewardTokens,expires,nonce,sigHash,signature));\n\n          _sendApproveAndCall(from,to,tokens,bytes(methodName));\n\n           return true;\n     }\n\n     function _sendApproveAndCall(address from, address to, uint tokens, bytes memory methodName) internal\n     {\n         ApproveAndCallFallBack(to).receiveApproval(from, tokens, address(this), bytes(methodName));\n     }\n\n\n\n\n    /*\n      Burn the signature of an off-chain transaction packet so that it cannot be used on-chain.\n      Only the creator of the packet can call this method as msg.sender.\n    */\n\n     function burnSignature( string memory methodName, address relayAuthority,address from,address to, address wallet,uint256 tokens,uint256 relayerRewardTokens,uint256 expires,uint256 nonce,  bytes memory signature) public returns (bool success)\n     {\n\n\n        bytes32 sigHash = getLavaTypedDataHash(methodName,relayAuthority,from,to,wallet,tokens,relayerRewardTokens,expires,nonce);\n\n         address recoveredSignatureSigner = recover(sigHash,signature);\n\n         //make sure the invalidator is the signer\n         require(recoveredSignatureSigner == from);\n\n         //only the original packet owner can burn signature, not a relay\n         require(from == msg.sender);\n\n         //make sure this signature has never been used\n         uint burnedSignature = burnedSignatures[sigHash];\n         burnedSignatures[sigHash] = 0x2; //invalidated\n         require(burnedSignature == 0x0);\n\n         return true;\n     }\n\n\n    /*\n      Check the burn status of the SHA3 hash of a packet signature.\n      Signatures are burned whenever they are used for a transaction or whenever the burnSignature() method is called.\n    */\n     function signatureHashBurnStatus(bytes32 digest) public view returns (uint)\n     {\n       return (burnedSignatures[digest]);\n     }\n\n\n\n\n       /*\n         Receive approval from ApproveAndCall() to mutate tokens.\n\n         This method allows 0xBTC to be mutated into LAVA using a single method call.\n       */\n     function receiveApproval(address from, uint256 tokens, address token, bytes memory data) public returns (bool success) {\n\n        require(token == masterToken);\n\n        require(mutateTokens(from, tokens));\n\n        return true;\n\n     }\n\n\n\n\n     function addressContainsContract(address _to) view internal returns (bool)\n     {\n       uint codeLength;\n\n        assembly {\n            // Retrieve the size of the code on target address, this needs assembly .\n            codeLength := extcodesize(_to)\n        }\n\n         return (codeLength>0);\n     }\n\n\n     function bytesEqual(bytes memory b1,bytes memory b2) pure internal returns (bool)\n        {\n          if(b1.length != b2.length) return false;\n\n          for (uint i=0; i<b1.length; i++) {\n            if(b1[i] != b2[i]) return false;\n          }\n\n          return true;\n        }\n\n\n\n\n}\n",
  "sourcePath": "/home/andy/dev/lava-token/contracts/LavaToken.sol",
  "compiler": {
    "name": "solc",
    "version": "0.5.0+commit.1d4f565a.Emscripten.clang"
  },
  "schemaVersion": "3.0.3",
  "updatedAt": "2019-03-16T20:13:57.441Z",
  "devdoc": {
    "methods": {
      "mutateTokens(address,uint256)": {
        "details": "Deposit original tokens, receive proxy tokens 1:1 This method requires token approval.",
        "params": {
          "amount": "of tokens to deposit"
        }
      },
      "unmutateTokens(uint256)": {
        "details": "Withdraw original tokens, burn proxy tokens 1:1     *",
        "params": {
          "amount": "of tokens to withdraw"
        }
      }
    }
  },
  "userdoc": {
    "methods": {}
  }
}